{
  "_format": "hh-sol-artifact-1",
  "contractName": "CryptoPrediction",
  "sourceName": "contracts/prediction.sol",
  "abi": [
    {
      "inputs": [],
      "stateMutability": "nonpayable",
      "type": "constructor"
    },
    {
      "inputs": [
        {
          "internalType": "address",
          "name": "sender",
          "type": "address"
        },
        {
          "internalType": "uint256",
          "name": "tokenId",
          "type": "uint256"
        },
        {
          "internalType": "address",
          "name": "owner",
          "type": "address"
        }
      ],
      "name": "ERC721IncorrectOwner",
      "type": "error"
    },
    {
      "inputs": [
        {
          "internalType": "address",
          "name": "operator",
          "type": "address"
        },
        {
          "internalType": "uint256",
          "name": "tokenId",
          "type": "uint256"
        }
      ],
      "name": "ERC721InsufficientApproval",
      "type": "error"
    },
    {
      "inputs": [
        {
          "internalType": "address",
          "name": "approver",
          "type": "address"
        }
      ],
      "name": "ERC721InvalidApprover",
      "type": "error"
    },
    {
      "inputs": [
        {
          "internalType": "address",
          "name": "operator",
          "type": "address"
        }
      ],
      "name": "ERC721InvalidOperator",
      "type": "error"
    },
    {
      "inputs": [
        {
          "internalType": "address",
          "name": "owner",
          "type": "address"
        }
      ],
      "name": "ERC721InvalidOwner",
      "type": "error"
    },
    {
      "inputs": [
        {
          "internalType": "address",
          "name": "receiver",
          "type": "address"
        }
      ],
      "name": "ERC721InvalidReceiver",
      "type": "error"
    },
    {
      "inputs": [
        {
          "internalType": "address",
          "name": "sender",
          "type": "address"
        }
      ],
      "name": "ERC721InvalidSender",
      "type": "error"
    },
    {
      "inputs": [
        {
          "internalType": "uint256",
          "name": "tokenId",
          "type": "uint256"
        }
      ],
      "name": "ERC721NonexistentToken",
      "type": "error"
    },
    {
      "inputs": [
        {
          "internalType": "address",
          "name": "owner",
          "type": "address"
        }
      ],
      "name": "OwnableInvalidOwner",
      "type": "error"
    },
    {
      "inputs": [
        {
          "internalType": "address",
          "name": "account",
          "type": "address"
        }
      ],
      "name": "OwnableUnauthorizedAccount",
      "type": "error"
    },
    {
      "anonymous": false,
      "inputs": [
        {
          "indexed": true,
          "internalType": "address",
          "name": "owner",
          "type": "address"
        },
        {
          "indexed": true,
          "internalType": "address",
          "name": "approved",
          "type": "address"
        },
        {
          "indexed": true,
          "internalType": "uint256",
          "name": "tokenId",
          "type": "uint256"
        }
      ],
      "name": "Approval",
      "type": "event"
    },
    {
      "anonymous": false,
      "inputs": [
        {
          "indexed": true,
          "internalType": "address",
          "name": "owner",
          "type": "address"
        },
        {
          "indexed": true,
          "internalType": "address",
          "name": "operator",
          "type": "address"
        },
        {
          "indexed": false,
          "internalType": "bool",
          "name": "approved",
          "type": "bool"
        }
      ],
      "name": "ApprovalForAll",
      "type": "event"
    },
    {
      "anonymous": false,
      "inputs": [
        {
          "indexed": false,
          "internalType": "uint256",
          "name": "_fromTokenId",
          "type": "uint256"
        },
        {
          "indexed": false,
          "internalType": "uint256",
          "name": "_toTokenId",
          "type": "uint256"
        }
      ],
      "name": "BatchMetadataUpdate",
      "type": "event"
    },
    {
      "anonymous": false,
      "inputs": [
        {
          "indexed": false,
          "internalType": "uint256",
          "name": "_tokenId",
          "type": "uint256"
        }
      ],
      "name": "MetadataUpdate",
      "type": "event"
    },
    {
      "anonymous": false,
      "inputs": [
        {
          "indexed": true,
          "internalType": "address",
          "name": "user",
          "type": "address"
        },
        {
          "indexed": false,
          "internalType": "string",
          "name": "token",
          "type": "string"
        },
        {
          "indexed": false,
          "internalType": "uint256",
          "name": "tokenId",
          "type": "uint256"
        },
        {
          "indexed": false,
          "internalType": "string",
          "name": "imageURL",
          "type": "string"
        }
      ],
      "name": "NFTMinted",
      "type": "event"
    },
    {
      "anonymous": false,
      "inputs": [
        {
          "indexed": true,
          "internalType": "address",
          "name": "previousOwner",
          "type": "address"
        },
        {
          "indexed": true,
          "internalType": "address",
          "name": "newOwner",
          "type": "address"
        }
      ],
      "name": "OwnershipTransferred",
      "type": "event"
    },
    {
      "anonymous": false,
      "inputs": [
        {
          "indexed": true,
          "internalType": "address",
          "name": "user",
          "type": "address"
        },
        {
          "indexed": false,
          "internalType": "string",
          "name": "token",
          "type": "string"
        },
        {
          "indexed": false,
          "internalType": "bool",
          "name": "wasCorrect",
          "type": "bool"
        }
      ],
      "name": "PredictionChecked",
      "type": "event"
    },
    {
      "anonymous": false,
      "inputs": [
        {
          "indexed": true,
          "internalType": "address",
          "name": "user",
          "type": "address"
        },
        {
          "indexed": false,
          "internalType": "string",
          "name": "token",
          "type": "string"
        },
        {
          "indexed": false,
          "internalType": "bool",
          "name": "willRise",
          "type": "bool"
        },
        {
          "indexed": false,
          "internalType": "uint256",
          "name": "timestamp",
          "type": "uint256"
        },
        {
          "indexed": false,
          "internalType": "uint256",
          "name": "predictionIndex",
          "type": "uint256"
        }
      ],
      "name": "PredictionMade",
      "type": "event"
    },
    {
      "anonymous": false,
      "inputs": [
        {
          "indexed": true,
          "internalType": "address",
          "name": "from",
          "type": "address"
        },
        {
          "indexed": true,
          "internalType": "address",
          "name": "to",
          "type": "address"
        },
        {
          "indexed": true,
          "internalType": "uint256",
          "name": "tokenId",
          "type": "uint256"
        }
      ],
      "name": "Transfer",
      "type": "event"
    },
    {
      "inputs": [
        {
          "internalType": "address",
          "name": "to",
          "type": "address"
        },
        {
          "internalType": "uint256",
          "name": "tokenId",
          "type": "uint256"
        }
      ],
      "name": "approve",
      "outputs": [],
      "stateMutability": "nonpayable",
      "type": "function"
    },
    {
      "inputs": [
        {
          "internalType": "address",
          "name": "owner",
          "type": "address"
        }
      ],
      "name": "balanceOf",
      "outputs": [
        {
          "internalType": "uint256",
          "name": "",
          "type": "uint256"
        }
      ],
      "stateMutability": "view",
      "type": "function"
    },
    {
      "inputs": [
        {
          "internalType": "address",
          "name": "user",
          "type": "address"
        },
        {
          "internalType": "uint256",
          "name": "currentPrice",
          "type": "uint256"
        },
        {
          "internalType": "string",
          "name": "imageURL",
          "type": "string"
        }
      ],
      "name": "checkPrediction",
      "outputs": [],
      "stateMutability": "nonpayable",
      "type": "function"
    },
    {
      "inputs": [
        {
          "internalType": "uint256",
          "name": "tokenId",
          "type": "uint256"
        }
      ],
      "name": "getApproved",
      "outputs": [
        {
          "internalType": "address",
          "name": "",
          "type": "address"
        }
      ],
      "stateMutability": "view",
      "type": "function"
    },
    {
      "inputs": [
        {
          "internalType": "address",
          "name": "user",
          "type": "address"
        },
        {
          "internalType": "string",
          "name": "tokenSymbol",
          "type": "string"
        }
      ],
      "name": "getPredictionIndex",
      "outputs": [
        {
          "internalType": "uint256",
          "name": "",
          "type": "uint256"
        }
      ],
      "stateMutability": "view",
      "type": "function"
    },
    {
      "inputs": [
        {
          "internalType": "address",
          "name": "user",
          "type": "address"
        },
        {
          "internalType": "uint256",
          "name": "predictionIndex",
          "type": "uint256"
        }
      ],
      "name": "getTokenId",
      "outputs": [
        {
          "internalType": "uint256",
          "name": "",
          "type": "uint256"
        }
      ],
      "stateMutability": "view",
      "type": "function"
    },
    {
      "inputs": [
        {
          "internalType": "address",
          "name": "owner",
          "type": "address"
        },
        {
          "internalType": "address",
          "name": "operator",
          "type": "address"
        }
      ],
      "name": "isApprovedForAll",
      "outputs": [
        {
          "internalType": "bool",
          "name": "",
          "type": "bool"
        }
      ],
      "stateMutability": "view",
      "type": "function"
    },
    {
      "inputs": [
        {
          "internalType": "string",
          "name": "",
          "type": "string"
        }
      ],
      "name": "lastPrices",
      "outputs": [
        {
          "internalType": "uint256",
          "name": "",
          "type": "uint256"
        }
      ],
      "stateMutability": "view",
      "type": "function"
    },
    {
      "inputs": [
        {
          "internalType": "string",
          "name": "tokenSymbol",
          "type": "string"
        },
        {
          "internalType": "bool",
          "name": "willRise",
          "type": "bool"
        },
        {
          "internalType": "uint256",
          "name": "priceAtPrediction",
          "type": "uint256"
        }
      ],
      "name": "makePrediction",
      "outputs": [],
      "stateMutability": "nonpayable",
      "type": "function"
    },
    {
      "inputs": [
        {
          "internalType": "address",
          "name": "recipient",
          "type": "address"
        },
        {
          "internalType": "string",
          "name": "tokenURI",
          "type": "string"
        }
      ],
      "name": "mintNFT",
      "outputs": [
        {
          "internalType": "uint256",
          "name": "",
          "type": "uint256"
        }
      ],
      "stateMutability": "nonpayable",
      "type": "function"
    },
    {
      "inputs": [],
      "name": "name",
      "outputs": [
        {
          "internalType": "string",
          "name": "",
          "type": "string"
        }
      ],
      "stateMutability": "view",
      "type": "function"
    },
    {
      "inputs": [],
      "name": "owner",
      "outputs": [
        {
          "internalType": "address",
          "name": "",
          "type": "address"
        }
      ],
      "stateMutability": "view",
      "type": "function"
    },
    {
      "inputs": [
        {
          "internalType": "uint256",
          "name": "tokenId",
          "type": "uint256"
        }
      ],
      "name": "ownerOf",
      "outputs": [
        {
          "internalType": "address",
          "name": "",
          "type": "address"
        }
      ],
      "stateMutability": "view",
      "type": "function"
    },
    {
      "inputs": [],
      "name": "renounceOwnership",
      "outputs": [],
      "stateMutability": "nonpayable",
      "type": "function"
    },
    {
      "inputs": [
        {
          "internalType": "address",
          "name": "from",
          "type": "address"
        },
        {
          "internalType": "address",
          "name": "to",
          "type": "address"
        },
        {
          "internalType": "uint256",
          "name": "tokenId",
          "type": "uint256"
        }
      ],
      "name": "safeTransferFrom",
      "outputs": [],
      "stateMutability": "nonpayable",
      "type": "function"
    },
    {
      "inputs": [
        {
          "internalType": "address",
          "name": "from",
          "type": "address"
        },
        {
          "internalType": "address",
          "name": "to",
          "type": "address"
        },
        {
          "internalType": "uint256",
          "name": "tokenId",
          "type": "uint256"
        },
        {
          "internalType": "bytes",
          "name": "data",
          "type": "bytes"
        }
      ],
      "name": "safeTransferFrom",
      "outputs": [],
      "stateMutability": "nonpayable",
      "type": "function"
    },
    {
      "inputs": [
        {
          "internalType": "address",
          "name": "operator",
          "type": "address"
        },
        {
          "internalType": "bool",
          "name": "approved",
          "type": "bool"
        }
      ],
      "name": "setApprovalForAll",
      "outputs": [],
      "stateMutability": "nonpayable",
      "type": "function"
    },
    {
      "inputs": [
        {
          "internalType": "bytes4",
          "name": "interfaceId",
          "type": "bytes4"
        }
      ],
      "name": "supportsInterface",
      "outputs": [
        {
          "internalType": "bool",
          "name": "",
          "type": "bool"
        }
      ],
      "stateMutability": "view",
      "type": "function"
    },
    {
      "inputs": [],
      "name": "symbol",
      "outputs": [
        {
          "internalType": "string",
          "name": "",
          "type": "string"
        }
      ],
      "stateMutability": "view",
      "type": "function"
    },
    {
      "inputs": [
        {
          "internalType": "uint256",
          "name": "",
          "type": "uint256"
        }
      ],
      "name": "tokenIdToTokenSymbol",
      "outputs": [
        {
          "internalType": "string",
          "name": "",
          "type": "string"
        }
      ],
      "stateMutability": "view",
      "type": "function"
    },
    {
      "inputs": [
        {
          "internalType": "uint256",
          "name": "tokenId",
          "type": "uint256"
        }
      ],
      "name": "tokenURI",
      "outputs": [
        {
          "internalType": "string",
          "name": "",
          "type": "string"
        }
      ],
      "stateMutability": "view",
      "type": "function"
    },
    {
      "inputs": [
        {
          "internalType": "address",
          "name": "from",
          "type": "address"
        },
        {
          "internalType": "address",
          "name": "to",
          "type": "address"
        },
        {
          "internalType": "uint256",
          "name": "tokenId",
          "type": "uint256"
        }
      ],
      "name": "transferFrom",
      "outputs": [],
      "stateMutability": "nonpayable",
      "type": "function"
    },
    {
      "inputs": [
        {
          "internalType": "address",
          "name": "newOwner",
          "type": "address"
        }
      ],
      "name": "transferOwnership",
      "outputs": [],
      "stateMutability": "nonpayable",
      "type": "function"
    },
    {
      "inputs": [
        {
          "internalType": "address",
          "name": "",
          "type": "address"
        },
        {
          "internalType": "uint256",
          "name": "",
          "type": "uint256"
        }
      ],
      "name": "userPredictions",
      "outputs": [
        {
          "internalType": "address",
          "name": "user",
          "type": "address"
        },
        {
          "internalType": "string",
          "name": "tokenSymbol",
          "type": "string"
        },
        {
          "internalType": "bool",
          "name": "willRise",
          "type": "bool"
        },
        {
          "internalType": "uint256",
          "name": "timestamp",
          "type": "uint256"
        },
        {
          "internalType": "bool",
          "name": "checked",
          "type": "bool"
        },
        {
          "internalType": "bool",
          "name": "wasCorrect",
          "type": "bool"
        },
        {
          "internalType": "uint256",
          "name": "tokenId",
          "type": "uint256"
        },
        {
          "internalType": "uint256",
          "name": "predictionIndex",
          "type": "uint256"
        }
      ],
      "stateMutability": "view",
      "type": "function"
    }
  ],
  "bytecode": "0x60806040523480156200001157600080fd5b50336040518060400160405280601381526020017f43727970746f50726564696374696f6e4e4654000000000000000000000000008152506040518060400160405280600581526020017f43504e4654000000000000000000000000000000000000000000000000000000815250816000908162000090919062000472565b508060019081620000a2919062000472565b505050600073ffffffffffffffffffffffffffffffffffffffff168173ffffffffffffffffffffffffffffffffffffffff16036200011a5760006040517f1e4fbdf70000000000000000000000000000000000000000000000000000000081526004016200011191906200059e565b60405180910390fd5b6200012b816200013260201b60201c565b50620005bb565b6000600760009054906101000a900473ffffffffffffffffffffffffffffffffffffffff16905081600760006101000a81548173ffffffffffffffffffffffffffffffffffffffff021916908373ffffffffffffffffffffffffffffffffffffffff1602179055508173ffffffffffffffffffffffffffffffffffffffff168173ffffffffffffffffffffffffffffffffffffffff167f8be0079c531659141344cd1fd0a4f28419497f9722a3daafe3b4186f6b6457e060405160405180910390a35050565b600081519050919050565b7f4e487b7100000000000000000000000000000000000000000000000000000000600052604160045260246000fd5b7f4e487b7100000000000000000000000000000000000000000000000000000000600052602260045260246000fd5b600060028204905060018216806200027a57607f821691505b60208210810362000290576200028f62000232565b5b50919050565b60008190508160005260206000209050919050565b60006020601f8301049050919050565b600082821b905092915050565b600060088302620002fa7fffffffffffffffffffffffffffffffffffffffffffffffffffffffffffffffff82620002bb565b620003068683620002bb565b95508019841693508086168417925050509392505050565b6000819050919050565b6000819050919050565b6000620003536200034d62000347846200031e565b62000328565b6200031e565b9050919050565b6000819050919050565b6200036f8362000332565b620003876200037e826200035a565b848454620002c8565b825550505050565b600090565b6200039e6200038f565b620003ab81848462000364565b505050565b5b81811015620003d357620003c760008262000394565b600181019050620003b1565b5050565b601f8211156200042257620003ec8162000296565b620003f784620002ab565b8101602085101562000407578190505b6200041f6200041685620002ab565b830182620003b0565b50505b505050565b600082821c905092915050565b6000620004476000198460080262000427565b1980831691505092915050565b600062000462838362000434565b9150826002028217905092915050565b6200047d82620001f8565b67ffffffffffffffff81111562000499576200049862000203565b5b620004a5825462000261565b620004b2828285620003d7565b600060209050601f831160018114620004ea5760008415620004d5578287015190505b620004e1858262000454565b86555062000551565b601f198416620004fa8662000296565b60005b828110156200052457848901518255600182019150602085019450602081019050620004fd565b8683101562000544578489015162000540601f89168262000434565b8355505b6001600288020188555050505b505050505050565b600073ffffffffffffffffffffffffffffffffffffffff82169050919050565b6000620005868262000559565b9050919050565b620005988162000579565b82525050565b6000602082019050620005b560008301846200058d565b92915050565b61393e80620005cb6000396000f3fe608060405234801561001057600080fd5b50600436106101585760003560e01c80638d1e4bc9116100c3578063d5eaf6bf1161007c578063d5eaf6bf146103e9578063e920a23414610419578063e985e9c514610435578063eacabe1414610465578063f2fde38b14610495578063f6c33179146104b157610158565b80638d1e4bc9146103295780638da5cb5b1461034557806395d89b4114610363578063a22cb46514610381578063b88d4fde1461039d578063c87b56dd146103b957610158565b8063369ba6fb11610115578063369ba6fb1461024357806342842e0e146102735780636352211e1461028f57806370a08231146102bf578063715018a6146102ef578063829d4655146102f957610158565b806301ffc9a71461015d57806306fdde031461018d578063081812fc146101ab578063095ea7b3146101db57806323b872dd146101f757806329f99b9f14610213575b600080fd5b61017760048036038101906101729190612680565b6104e8565b60405161018491906126c8565b60405180910390f35b610195610549565b6040516101a29190612773565b60405180910390f35b6101c560048036038101906101c091906127cb565b6105db565b6040516101d29190612839565b60405180910390f35b6101f560048036038101906101f09190612880565b6105f7565b005b610211600480360381019061020c91906128c0565b61060d565b005b61022d60048036038101906102289190612880565b61070f565b60405161023a9190612922565b60405180910390f35b61025d60048036038101906102589190612a72565b610800565b60405161026a9190612922565b60405180910390f35b61028d600480360381019061028891906128c0565b610996565b005b6102a960048036038101906102a491906127cb565b6109b6565b6040516102b69190612839565b60405180910390f35b6102d960048036038101906102d49190612ace565b6109c8565b6040516102e69190612922565b60405180910390f35b6102f7610a82565b005b610313600480360381019061030e91906127cb565b610a96565b6040516103209190612773565b60405180910390f35b610343600480360381019061033e9190612b27565b610b36565b005b61034d610d98565b60405161035a9190612839565b60405180910390f35b61036b610dc2565b6040516103789190612773565b60405180910390f35b61039b60048036038101906103969190612b96565b610e54565b005b6103b760048036038101906103b29190612c77565b610e6a565b005b6103d360048036038101906103ce91906127cb565b610e8f565b6040516103e09190612773565b60405180910390f35b61040360048036038101906103fe9190612cfa565b610fa2565b6040516104109190612922565b60405180910390f35b610433600480360381019061042e9190612d43565b610fd0565b005b61044f600480360381019061044a9190612db2565b611302565b60405161045c91906126c8565b60405180910390f35b61047f600480360381019061047a9190612a72565b611396565b60405161048c9190612922565b60405180910390f35b6104af60048036038101906104aa9190612ace565b6113aa565b005b6104cb60048036038101906104c69190612880565b611430565b6040516104df989796959493929190612df2565b60405180910390f35b6000634906490660e01b7bffffffffffffffffffffffffffffffffffffffffffffffffffffffff1916827bffffffffffffffffffffffffffffffffffffffffffffffffffffffff19161480610542575061054182611564565b5b9050919050565b60606000805461055890612ea6565b80601f016020809104026020016040519081016040528092919081815260200182805461058490612ea6565b80156105d15780601f106105a6576101008083540402835291602001916105d1565b820191906000526020600020905b8154815290600101906020018083116105b457829003601f168201915b5050505050905090565b60006105e682611646565b506105f0826116ce565b9050919050565b610609828261060461170b565b611713565b5050565b600073ffffffffffffffffffffffffffffffffffffffff168273ffffffffffffffffffffffffffffffffffffffff160361067f5760006040517f64a0ae920000000000000000000000000000000000000000000000000000000081526004016106769190612839565b60405180910390fd5b6000610693838361068e61170b565b611725565b90508373ffffffffffffffffffffffffffffffffffffffff168173ffffffffffffffffffffffffffffffffffffffff1614610709578382826040517f64283d7b00000000000000000000000000000000000000000000000000000000815260040161070093929190612ed7565b60405180910390fd5b50505050565b6000600860008473ffffffffffffffffffffffffffffffffffffffff1673ffffffffffffffffffffffffffffffffffffffff168152602001908152602001600020805490508210610795576040517f08c379a000000000000000000000000000000000000000000000000000000000815260040161078c90612f5a565b60405180910390fd5b600860008473ffffffffffffffffffffffffffffffffffffffff1673ffffffffffffffffffffffffffffffffffffffff16815260200190815260200160002082815481106107e6576107e5612f7a565b5b906000526020600020906007020160050154905092915050565b600080600090505b600860008573ffffffffffffffffffffffffffffffffffffffff1673ffffffffffffffffffffffffffffffffffffffff16815260200190815260200160002080549050811015610954578280519060200120600860008673ffffffffffffffffffffffffffffffffffffffff1673ffffffffffffffffffffffffffffffffffffffff16815260200190815260200160002082815481106108ab576108aa612f7a565b5b90600052602060002090600702016001016040516108c9919061304c565b60405180910390200361094157600860008573ffffffffffffffffffffffffffffffffffffffff1673ffffffffffffffffffffffffffffffffffffffff168152602001908152602001600020818154811061092757610926612f7a565b5b906000526020600020906007020160060154915050610990565b808061094c90613092565b915050610808565b506040517f08c379a000000000000000000000000000000000000000000000000000000000815260040161098790613126565b60405180910390fd5b92915050565b6109b183838360405180602001604052806000815250610e6a565b505050565b60006109c182611646565b9050919050565b60008073ffffffffffffffffffffffffffffffffffffffff168273ffffffffffffffffffffffffffffffffffffffff1603610a3b5760006040517f89c62b64000000000000000000000000000000000000000000000000000000008152600401610a329190612839565b60405180910390fd5b600360008373ffffffffffffffffffffffffffffffffffffffff1673ffffffffffffffffffffffffffffffffffffffff168152602001908152602001600020549050919050565b610a8a61193f565b610a9460006119c6565b565b600a6020528060005260406000206000915090508054610ab590612ea6565b80601f0160208091040260200160405190810160405280929190818152602001828054610ae190612ea6565b8015610b2e5780601f10610b0357610100808354040283529160200191610b2e565b820191906000526020600020905b815481529060010190602001808311610b1157829003601f168201915b505050505081565b6000600860003373ffffffffffffffffffffffffffffffffffffffff1673ffffffffffffffffffffffffffffffffffffffff168152602001908152602001600020805490509050600860003373ffffffffffffffffffffffffffffffffffffffff1673ffffffffffffffffffffffffffffffffffffffff1681526020019081526020016000206040518061010001604052803373ffffffffffffffffffffffffffffffffffffffff16815260200186815260200185151581526020014281526020016000151581526020016000151581526020016000815260200183815250908060018154018082558091505060019003906000526020600020906007020160009091909190915060008201518160000160006101000a81548173ffffffffffffffffffffffffffffffffffffffff021916908373ffffffffffffffffffffffffffffffffffffffff1602179055506020820151816001019081610c9a91906132f2565b5060408201518160020160006101000a81548160ff0219169083151502179055506060820151816003015560808201518160040160006101000a81548160ff02191690831515021790555060a08201518160040160016101000a81548160ff02191690831515021790555060c0820151816005015560e08201518160060155505081600985604051610d2c9190613400565b9081526020016040518091039020819055503373ffffffffffffffffffffffffffffffffffffffff167f3de50bd008b80e113d396a9832b03c45a31e0652bc8b4ca36abb2a15beaabb6d85854285604051610d8a9493929190613417565b60405180910390a250505050565b6000600760009054906101000a900473ffffffffffffffffffffffffffffffffffffffff16905090565b606060018054610dd190612ea6565b80601f0160208091040260200160405190810160405280929190818152602001828054610dfd90612ea6565b8015610e4a5780601f10610e1f57610100808354040283529160200191610e4a565b820191906000526020600020905b815481529060010190602001808311610e2d57829003601f168201915b5050505050905090565b610e66610e5f61170b565b8383611a8c565b5050565b610e7584848461060d565b610e89610e8061170b565b85858585611bfb565b50505050565b6060610e9a82611646565b506000600660008481526020019081526020016000208054610ebb90612ea6565b80601f0160208091040260200160405190810160405280929190818152602001828054610ee790612ea6565b8015610f345780601f10610f0957610100808354040283529160200191610f34565b820191906000526020600020905b815481529060010190602001808311610f1757829003601f168201915b505050505090506000610f45611dac565b90506000815103610f5a578192505050610f9d565b600082511115610f8f578082604051602001610f77929190613463565b60405160208183030381529060405292505050610f9d565b610f9884611dc3565b925050505b919050565b6009818051602081018201805184825260208301602085012081835280955050505050506000915090505481565b6000600860008573ffffffffffffffffffffffffffffffffffffffff1673ffffffffffffffffffffffffffffffffffffffff1681526020019081526020016000208054905011611055576040517f08c379a000000000000000000000000000000000000000000000000000000000815260040161104c906134d3565b60405180910390fd5b60005b600860008573ffffffffffffffffffffffffffffffffffffffff1673ffffffffffffffffffffffffffffffffffffffff168152602001908152602001600020805490508110156112fc576000600860008673ffffffffffffffffffffffffffffffffffffffff1673ffffffffffffffffffffffffffffffffffffffff16815260200190815260200160002082815481106110f5576110f4612f7a565b5b906000526020600020906007020190508060040160009054906101000a900460ff16158015611135575061012c816003015461113191906134f3565b4210155b156112e85760008160020160009054906101000a900460ff16801561117a575060098260010160405161116891906135aa565b90815260200160405180910390205485115b806111c057508160020160009054906101000a900460ff161580156111bf57506009826001016040516111ad91906135aa565b90815260200160405180910390205485105b5b9050808260040160016101000a81548160ff02191690831515021790555060018260040160006101000a81548160ff0219169083151502179055508573ffffffffffffffffffffffffffffffffffffffff167fa71e3f9f44df944c22a599a3bfb6c15b2c86d0cdf5eddbef7ff6aa7607aba0068360010183604051611246929190613645565b60405180910390a280156112e65760006112608786611396565b905080836005018190555082600101600a6000838152602001908152602001600020908161128e91906136a0565b508673ffffffffffffffffffffffffffffffffffffffff167f1e9a3cbf56a0ed8a223206b627ece90d5a517cf80fa6cf1010f50fd53f6c03f98460010183886040516112dc93929190613788565b60405180910390a2505b505b5080806112f490613092565b915050611058565b50505050565b6000600560008473ffffffffffffffffffffffffffffffffffffffff1673ffffffffffffffffffffffffffffffffffffffff16815260200190815260200160002060008373ffffffffffffffffffffffffffffffffffffffff1673ffffffffffffffffffffffffffffffffffffffff16815260200190815260200160002060009054906101000a900460ff16905092915050565b60006113a28383611e2c565b905092915050565b6113b261193f565b600073ffffffffffffffffffffffffffffffffffffffff168173ffffffffffffffffffffffffffffffffffffffff16036114245760006040517f1e4fbdf700000000000000000000000000000000000000000000000000000000815260040161141b9190612839565b60405180910390fd5b61142d816119c6565b50565b6008602052816000526040600020818154811061144c57600080fd5b9060005260206000209060070201600091509150508060000160009054906101000a900473ffffffffffffffffffffffffffffffffffffffff169080600101805461149690612ea6565b80601f01602080910402602001604051908101604052809291908181526020018280546114c290612ea6565b801561150f5780601f106114e45761010080835404028352916020019161150f565b820191906000526020600020905b8154815290600101906020018083116114f257829003601f168201915b5050505050908060020160009054906101000a900460ff16908060030154908060040160009054906101000a900460ff16908060040160019054906101000a900460ff16908060050154908060060154905088565b60007f80ac58cd000000000000000000000000000000000000000000000000000000007bffffffffffffffffffffffffffffffffffffffffffffffffffffffff1916827bffffffffffffffffffffffffffffffffffffffffffffffffffffffff1916148061162f57507f5b5e139f000000000000000000000000000000000000000000000000000000007bffffffffffffffffffffffffffffffffffffffffffffffffffffffff1916827bffffffffffffffffffffffffffffffffffffffffffffffffffffffff1916145b8061163f575061163e82611e6b565b5b9050919050565b60008061165283611ed5565b9050600073ffffffffffffffffffffffffffffffffffffffff168173ffffffffffffffffffffffffffffffffffffffff16036116c557826040517f7e2732890000000000000000000000000000000000000000000000000000000081526004016116bc9190612922565b60405180910390fd5b80915050919050565b60006004600083815260200190815260200160002060009054906101000a900473ffffffffffffffffffffffffffffffffffffffff169050919050565b600033905090565b6117208383836001611f12565b505050565b60008061173184611ed5565b9050600073ffffffffffffffffffffffffffffffffffffffff168373ffffffffffffffffffffffffffffffffffffffff1614611773576117728184866120d7565b5b600073ffffffffffffffffffffffffffffffffffffffff168173ffffffffffffffffffffffffffffffffffffffff1614611804576117b5600085600080611f12565b6001600360008373ffffffffffffffffffffffffffffffffffffffff1673ffffffffffffffffffffffffffffffffffffffff168152602001908152602001600020600082825403925050819055505b600073ffffffffffffffffffffffffffffffffffffffff168573ffffffffffffffffffffffffffffffffffffffff1614611887576001600360008773ffffffffffffffffffffffffffffffffffffffff1673ffffffffffffffffffffffffffffffffffffffff168152602001908152602001600020600082825401925050819055505b846002600086815260200190815260200160002060006101000a81548173ffffffffffffffffffffffffffffffffffffffff021916908373ffffffffffffffffffffffffffffffffffffffff160217905550838573ffffffffffffffffffffffffffffffffffffffff168273ffffffffffffffffffffffffffffffffffffffff167fddf252ad1be2c89b69c2b068fc378daa952ba7f163c4a11628f55a4df523b3ef60405160405180910390a4809150509392505050565b61194761170b565b73ffffffffffffffffffffffffffffffffffffffff16611965610d98565b73ffffffffffffffffffffffffffffffffffffffff16146119c45761198861170b565b6040517f118cdaa70000000000000000000000000000000000000000000000000000000081526004016119bb9190612839565b60405180910390fd5b565b6000600760009054906101000a900473ffffffffffffffffffffffffffffffffffffffff16905081600760006101000a81548173ffffffffffffffffffffffffffffffffffffffff021916908373ffffffffffffffffffffffffffffffffffffffff1602179055508173ffffffffffffffffffffffffffffffffffffffff168173ffffffffffffffffffffffffffffffffffffffff167f8be0079c531659141344cd1fd0a4f28419497f9722a3daafe3b4186f6b6457e060405160405180910390a35050565b600073ffffffffffffffffffffffffffffffffffffffff168273ffffffffffffffffffffffffffffffffffffffff1603611afd57816040517f5b08ba18000000000000000000000000000000000000000000000000000000008152600401611af49190612839565b60405180910390fd5b80600560008573ffffffffffffffffffffffffffffffffffffffff1673ffffffffffffffffffffffffffffffffffffffff16815260200190815260200160002060008473ffffffffffffffffffffffffffffffffffffffff1673ffffffffffffffffffffffffffffffffffffffff16815260200190815260200160002060006101000a81548160ff0219169083151502179055508173ffffffffffffffffffffffffffffffffffffffff168373ffffffffffffffffffffffffffffffffffffffff167f17307eab39ab6107e8899845ad3d59bd9653f200f220920489ca2b5937696c3183604051611bee91906126c8565b60405180910390a3505050565b60008373ffffffffffffffffffffffffffffffffffffffff163b1115611da5578273ffffffffffffffffffffffffffffffffffffffff1663150b7a02868685856040518563ffffffff1660e01b8152600401611c5a9493929190613822565b6020604051808303816000875af1925050508015611c9657506040513d601f19601f82011682018060405250810190611c939190613883565b60015b611d1a573d8060008114611cc6576040519150601f19603f3d011682016040523d82523d6000602084013e611ccb565b606091505b506000815103611d1257836040517f64a0ae92000000000000000000000000000000000000000000000000000000008152600401611d099190612839565b60405180910390fd5b805181602001fd5b63150b7a0260e01b7bffffffffffffffffffffffffffffffffffffffffffffffffffffffff1916817bffffffffffffffffffffffffffffffffffffffffffffffffffffffff191614611da357836040517f64a0ae92000000000000000000000000000000000000000000000000000000008152600401611d9a9190612839565b60405180910390fd5b505b5050505050565b606060405180602001604052806000815250905090565b6060611dce82611646565b506000611dd9611dac565b90506000815111611df95760405180602001604052806000815250611e24565b80611e038461219b565b604051602001611e14929190613463565b6040516020818303038152906040525b915050919050565b6000600b6000815480929190611e4190613092565b91905055506000600b549050611e578482612269565b611e618184612287565b8091505092915050565b60007f01ffc9a7000000000000000000000000000000000000000000000000000000007bffffffffffffffffffffffffffffffffffffffffffffffffffffffff1916827bffffffffffffffffffffffffffffffffffffffffffffffffffffffff1916149050919050565b60006002600083815260200190815260200160002060009054906101000a900473ffffffffffffffffffffffffffffffffffffffff169050919050565b8080611f4b5750600073ffffffffffffffffffffffffffffffffffffffff168273ffffffffffffffffffffffffffffffffffffffff1614155b1561207f576000611f5b84611646565b9050600073ffffffffffffffffffffffffffffffffffffffff168373ffffffffffffffffffffffffffffffffffffffff1614158015611fc657508273ffffffffffffffffffffffffffffffffffffffff168173ffffffffffffffffffffffffffffffffffffffff1614155b8015611fd95750611fd78184611302565b155b1561201b57826040517fa9fbf51f0000000000000000000000000000000000000000000000000000000081526004016120129190612839565b60405180910390fd5b811561207d57838573ffffffffffffffffffffffffffffffffffffffff168273ffffffffffffffffffffffffffffffffffffffff167f8c5be1e5ebec7d5bd14f71427d1e84f3dd0314c0f7b2291e5b200ac8c7c3b92560405160405180910390a45b505b836004600085815260200190815260200160002060006101000a81548173ffffffffffffffffffffffffffffffffffffffff021916908373ffffffffffffffffffffffffffffffffffffffff16021790555050505050565b6120e28383836122e3565b61219657600073ffffffffffffffffffffffffffffffffffffffff168373ffffffffffffffffffffffffffffffffffffffff160361215757806040517f7e27328900000000000000000000000000000000000000000000000000000000815260040161214e9190612922565b60405180910390fd5b81816040517f177e802f00000000000000000000000000000000000000000000000000000000815260040161218d9291906138b0565b60405180910390fd5b505050565b6060600060016121aa846123a4565b01905060008167ffffffffffffffff8111156121c9576121c8612947565b5b6040519080825280601f01601f1916602001820160405280156121fb5781602001600182028036833780820191505090505b509050600082602001820190505b60011561225e578080600190039150507f3031323334353637383961626364656600000000000000000000000000000000600a86061a8153600a8581612252576122516138d9565b5b04945060008503612209575b819350505050919050565b6122838282604051806020016040528060008152506124f7565b5050565b806006600084815260200190815260200160002090816122a791906132f2565b507ff8e1a15aba9398e019f0b49df1a4fde98ee17ae345cb5f6b5e2c27f5033e8ce7826040516122d79190612922565b60405180910390a15050565b60008073ffffffffffffffffffffffffffffffffffffffff168373ffffffffffffffffffffffffffffffffffffffff161415801561239b57508273ffffffffffffffffffffffffffffffffffffffff168473ffffffffffffffffffffffffffffffffffffffff16148061235c575061235b8484611302565b5b8061239a57508273ffffffffffffffffffffffffffffffffffffffff16612382836116ce565b73ffffffffffffffffffffffffffffffffffffffff16145b5b90509392505050565b600080600090507a184f03e93ff9f4daa797ed6e38ed64bf6a1f0100000000000000008310612402577a184f03e93ff9f4daa797ed6e38ed64bf6a1f01000000000000000083816123f8576123f76138d9565b5b0492506040810190505b6d04ee2d6d415b85acef8100000000831061243f576d04ee2d6d415b85acef81000000008381612435576124346138d9565b5b0492506020810190505b662386f26fc10000831061246e57662386f26fc100008381612464576124636138d9565b5b0492506010810190505b6305f5e1008310612497576305f5e100838161248d5761248c6138d9565b5b0492506008810190505b61271083106124bc5761271083816124b2576124b16138d9565b5b0492506004810190505b606483106124df57606483816124d5576124d46138d9565b5b0492506002810190505b600a83106124ee576001810190505b80915050919050565b612501838361251b565b61251661250c61170b565b6000858585611bfb565b505050565b600073ffffffffffffffffffffffffffffffffffffffff168273ffffffffffffffffffffffffffffffffffffffff160361258d5760006040517f64a0ae920000000000000000000000000000000000000000000000000000000081526004016125849190612839565b60405180910390fd5b600061259b83836000611725565b9050600073ffffffffffffffffffffffffffffffffffffffff168173ffffffffffffffffffffffffffffffffffffffff161461260f5760006040517f73c6ac6e0000000000000000000000000000000000000000000000000000000081526004016126069190612839565b60405180910390fd5b505050565b6000604051905090565b600080fd5b600080fd5b60007fffffffff0000000000000000000000000000000000000000000000000000000082169050919050565b61265d81612628565b811461266857600080fd5b50565b60008135905061267a81612654565b92915050565b6000602082840312156126965761269561261e565b5b60006126a48482850161266b565b91505092915050565b60008115159050919050565b6126c2816126ad565b82525050565b60006020820190506126dd60008301846126b9565b92915050565b600081519050919050565b600082825260208201905092915050565b60005b8381101561271d578082015181840152602081019050612702565b60008484015250505050565b6000601f19601f8301169050919050565b6000612745826126e3565b61274f81856126ee565b935061275f8185602086016126ff565b61276881612729565b840191505092915050565b6000602082019050818103600083015261278d818461273a565b905092915050565b6000819050919050565b6127a881612795565b81146127b357600080fd5b50565b6000813590506127c58161279f565b92915050565b6000602082840312156127e1576127e061261e565b5b60006127ef848285016127b6565b91505092915050565b600073ffffffffffffffffffffffffffffffffffffffff82169050919050565b6000612823826127f8565b9050919050565b61283381612818565b82525050565b600060208201905061284e600083018461282a565b92915050565b61285d81612818565b811461286857600080fd5b50565b60008135905061287a81612854565b92915050565b600080604083850312156128975761289661261e565b5b60006128a58582860161286b565b92505060206128b6858286016127b6565b9150509250929050565b6000806000606084860312156128d9576128d861261e565b5b60006128e78682870161286b565b93505060206128f88682870161286b565b9250506040612909868287016127b6565b9150509250925092565b61291c81612795565b82525050565b60006020820190506129376000830184612913565b92915050565b600080fd5b600080fd5b7f4e487b7100000000000000000000000000000000000000000000000000000000600052604160045260246000fd5b61297f82612729565b810181811067ffffffffffffffff8211171561299e5761299d612947565b5b80604052505050565b60006129b1612614565b90506129bd8282612976565b919050565b600067ffffffffffffffff8211156129dd576129dc612947565b5b6129e682612729565b9050602081019050919050565b82818337600083830152505050565b6000612a15612a10846129c2565b6129a7565b905082815260208101848484011115612a3157612a30612942565b5b612a3c8482856129f3565b509392505050565b600082601f830112612a5957612a5861293d565b5b8135612a69848260208601612a02565b91505092915050565b60008060408385031215612a8957612a8861261e565b5b6000612a978582860161286b565b925050602083013567ffffffffffffffff811115612ab857612ab7612623565b5b612ac485828601612a44565b9150509250929050565b600060208284031215612ae457612ae361261e565b5b6000612af28482850161286b565b91505092915050565b612b04816126ad565b8114612b0f57600080fd5b50565b600081359050612b2181612afb565b92915050565b600080600060608486031215612b4057612b3f61261e565b5b600084013567ffffffffffffffff811115612b5e57612b5d612623565b5b612b6a86828701612a44565b9350506020612b7b86828701612b12565b9250506040612b8c868287016127b6565b9150509250925092565b60008060408385031215612bad57612bac61261e565b5b6000612bbb8582860161286b565b9250506020612bcc85828601612b12565b9150509250929050565b600067ffffffffffffffff821115612bf157612bf0612947565b5b612bfa82612729565b9050602081019050919050565b6000612c1a612c1584612bd6565b6129a7565b905082815260208101848484011115612c3657612c35612942565b5b612c418482856129f3565b509392505050565b600082601f830112612c5e57612c5d61293d565b5b8135612c6e848260208601612c07565b91505092915050565b60008060008060808587031215612c9157612c9061261e565b5b6000612c9f8782880161286b565b9450506020612cb08782880161286b565b9350506040612cc1878288016127b6565b925050606085013567ffffffffffffffff811115612ce257612ce1612623565b5b612cee87828801612c49565b91505092959194509250565b600060208284031215612d1057612d0f61261e565b5b600082013567ffffffffffffffff811115612d2e57612d2d612623565b5b612d3a84828501612a44565b91505092915050565b600080600060608486031215612d5c57612d5b61261e565b5b6000612d6a8682870161286b565b9350506020612d7b868287016127b6565b925050604084013567ffffffffffffffff811115612d9c57612d9b612623565b5b612da886828701612a44565b9150509250925092565b60008060408385031215612dc957612dc861261e565b5b6000612dd78582860161286b565b9250506020612de88582860161286b565b9150509250929050565b600061010082019050612e08600083018b61282a565b8181036020830152612e1a818a61273a565b9050612e2960408301896126b9565b612e366060830188612913565b612e4360808301876126b9565b612e5060a08301866126b9565b612e5d60c0830185612913565b612e6a60e0830184612913565b9998505050505050505050565b7f4e487b7100000000000000000000000000000000000000000000000000000000600052602260045260246000fd5b60006002820490506001821680612ebe57607f821691505b602082108103612ed157612ed0612e77565b5b50919050565b6000606082019050612eec600083018661282a565b612ef96020830185612913565b612f06604083018461282a565b949350505050565b7f496e76616c69642070726564696374696f6e20696e6465780000000000000000600082015250565b6000612f446018836126ee565b9150612f4f82612f0e565b602082019050919050565b60006020820190508181036000830152612f7381612f37565b9050919050565b7f4e487b7100000000000000000000000000000000000000000000000000000000600052603260045260246000fd5b600081905092915050565b60008190508160005260206000209050919050565b60008154612fd681612ea6565b612fe08186612fa9565b94506001821660008114612ffb576001811461301057613043565b60ff1983168652811515820286019350613043565b61301985612fb4565b60005b8381101561303b5781548189015260018201915060208101905061301c565b838801955050505b50505092915050565b60006130588284612fc9565b915081905092915050565b7f4e487b7100000000000000000000000000000000000000000000000000000000600052601160045260246000fd5b600061309d82612795565b91507fffffffffffffffffffffffffffffffffffffffffffffffffffffffffffffffff82036130cf576130ce613063565b5b600182019050919050565b7f50726564696374696f6e206e6f7420666f756e64000000000000000000000000600082015250565b60006131106014836126ee565b915061311b826130da565b602082019050919050565b6000602082019050818103600083015261313f81613103565b9050919050565b60008190508160005260206000209050919050565b60006020601f8301049050919050565b600082821b905092915050565b6000600883026131a87fffffffffffffffffffffffffffffffffffffffffffffffffffffffffffffffff8261316b565b6131b2868361316b565b95508019841693508086168417925050509392505050565b6000819050919050565b60006131ef6131ea6131e584612795565b6131ca565b612795565b9050919050565b6000819050919050565b613209836131d4565b61321d613215826131f6565b848454613178565b825550505050565b600090565b613232613225565b61323d818484613200565b505050565b5b818110156132615761325660008261322a565b600181019050613243565b5050565b601f8211156132a65761327781613146565b6132808461315b565b8101602085101561328f578190505b6132a361329b8561315b565b830182613242565b50505b505050565b600082821c905092915050565b60006132c9600019846008026132ab565b1980831691505092915050565b60006132e283836132b8565b9150826002028217905092915050565b6132fb826126e3565b67ffffffffffffffff81111561331457613313612947565b5b61331e8254612ea6565b613329828285613265565b600060209050601f83116001811461335c576000841561334a578287015190505b61335485826132d6565b8655506133bc565b601f19841661336a86613146565b60005b828110156133925784890151825560018201915060208501945060208101905061336d565b868310156133af57848901516133ab601f8916826132b8565b8355505b6001600288020188555050505b505050505050565b600081905092915050565b60006133da826126e3565b6133e481856133c4565b93506133f48185602086016126ff565b80840191505092915050565b600061340c82846133cf565b915081905092915050565b60006080820190508181036000830152613431818761273a565b905061344060208301866126b9565b61344d6040830185612913565b61345a6060830184612913565b95945050505050565b600061346f82856133cf565b915061347b82846133cf565b91508190509392505050565b7f4e6f2070726564696374696f6e7320666f756e64000000000000000000000000600082015250565b60006134bd6014836126ee565b91506134c882613487565b602082019050919050565b600060208201905081810360008301526134ec816134b0565b9050919050565b60006134fe82612795565b915061350983612795565b925082820190508082111561352157613520613063565b5b92915050565b6000815461353481612ea6565b61353e81866133c4565b94506001821660008114613559576001811461356e576135a1565b60ff19831686528115158202860193506135a1565b61357785613146565b60005b838110156135995781548189015260018201915060208101905061357a565b838801955050505b50505092915050565b60006135b68284613527565b915081905092915050565b600081546135ce81612ea6565b6135d881866126ee565b945060018216600081146135f357600181146136095761363c565b60ff19831686528115156020028601935061363c565b61361285613146565b60005b8381101561363457815481890152600182019150602081019050613615565b808801955050505b50505092915050565b6000604082019050818103600083015261365f81856135c1565b905061366e60208301846126b9565b9392505050565b60008154905061368481612ea6565b9050919050565b60008190508160005260206000209050919050565b8181036136ae575050613786565b6136b782613675565b67ffffffffffffffff8111156136d0576136cf612947565b5b6136da8254612ea6565b6136e5828285613265565b6000601f8311600181146137145760008415613702578287015490505b61370c85826132d6565b86555061377f565b601f1984166137228761368b565b965061372d86613146565b60005b8281101561375557848901548255600182019150600185019450602081019050613730565b86831015613772578489015461376e601f8916826132b8565b8355505b6001600288020188555050505b5050505050505b565b600060608201905081810360008301526137a281866135c1565b90506137b16020830185612913565b81810360408301526137c3818461273a565b9050949350505050565b600081519050919050565b600082825260208201905092915050565b60006137f4826137cd565b6137fe81856137d8565b935061380e8185602086016126ff565b61381781612729565b840191505092915050565b6000608082019050613837600083018761282a565b613844602083018661282a565b6138516040830185612913565b818103606083015261386381846137e9565b905095945050505050565b60008151905061387d81612654565b92915050565b6000602082840312156138995761389861261e565b5b60006138a78482850161386e565b91505092915050565b60006040820190506138c5600083018561282a565b6138d26020830184612913565b9392505050565b7f4e487b7100000000000000000000000000000000000000000000000000000000600052601260045260246000fdfea26469706673582212204df6ce490c1a281e0a37fef28d55339cb2d1ef3255bbb0e078f666d7561df58864736f6c63430008140033",
  "linkReferences": {},
  "deployedLinkReferences": {}
}